{
  "_format": "hh-sol-artifact-1",
  "contractName": "MediLedger",
  "sourceName": "contracts/MediLedger.sol",
  "abi": [
    {
      "inputs": [],
      "stateMutability": "nonpayable",
      "type": "constructor"
    },
    {
      "anonymous": false,
      "inputs": [
        {
          "indexed": true,
          "internalType": "address",
          "name": "patient",
          "type": "address"
        },
        {
          "indexed": true,
          "internalType": "address",
          "name": "doctor",
          "type": "address"
        }
      ],
      "name": "AccessGranted",
      "type": "event"
    },
    {
      "anonymous": false,
      "inputs": [
        {
          "indexed": true,
          "internalType": "address",
          "name": "patient",
          "type": "address"
        },
        {
          "indexed": true,
          "internalType": "address",
          "name": "doctor",
          "type": "address"
        }
      ],
      "name": "AccessRevoked",
      "type": "event"
    },
    {
      "anonymous": false,
      "inputs": [
        {
          "indexed": true,
          "internalType": "address",
          "name": "hospitalAddress",
          "type": "address"
        },
        {
          "indexed": false,
          "internalType": "string",
          "name": "name",
          "type": "string"
        }
      ],
      "name": "HospitalRegistered",
      "type": "event"
    },
    {
      "anonymous": false,
      "inputs": [
        {
          "indexed": false,
          "internalType": "uint256",
          "name": "recordId",
          "type": "uint256"
        },
        {
          "indexed": true,
          "internalType": "address",
          "name": "patient",
          "type": "address"
        },
        {
          "indexed": true,
          "internalType": "address",
          "name": "hospital",
          "type": "address"
        }
      ],
      "name": "RecordAdded",
      "type": "event"
    },
    {
      "inputs": [
        {
          "internalType": "address",
          "name": "_patient",
          "type": "address"
        },
        {
          "internalType": "string",
          "name": "_ipfsHash",
          "type": "string"
        },
        {
          "internalType": "string",
          "name": "_recordType",
          "type": "string"
        },
        {
          "internalType": "string",
          "name": "_description",
          "type": "string"
        }
      ],
      "name": "addMedicalRecord",
      "outputs": [],
      "stateMutability": "nonpayable",
      "type": "function"
    },
    {
      "inputs": [
        {
          "internalType": "address",
          "name": "_patient",
          "type": "address"
        },
        {
          "internalType": "address",
          "name": "_doctor",
          "type": "address"
        }
      ],
      "name": "checkAccess",
      "outputs": [
        {
          "internalType": "bool",
          "name": "",
          "type": "bool"
        }
      ],
      "stateMutability": "view",
      "type": "function"
    },
    {
      "inputs": [
        {
          "internalType": "address",
          "name": "_hospitalAddress",
          "type": "address"
        }
      ],
      "name": "getHospital",
      "outputs": [
        {
          "components": [
            {
              "internalType": "uint256",
              "name": "id",
              "type": "uint256"
            },
            {
              "internalType": "string",
              "name": "name",
              "type": "string"
            },
            {
              "internalType": "string",
              "name": "location",
              "type": "string"
            },
            {
              "internalType": "address",
              "name": "walletAddress",
              "type": "address"
            },
            {
              "internalType": "bool",
              "name": "isRegistered",
              "type": "bool"
            }
          ],
          "internalType": "struct MediLedger.Hospital",
          "name": "",
          "type": "tuple"
        }
      ],
      "stateMutability": "view",
      "type": "function"
    },
    {
      "inputs": [],
      "name": "getHospitalAddresses",
      "outputs": [
        {
          "internalType": "address[]",
          "name": "",
          "type": "address[]"
        }
      ],
      "stateMutability": "view",
      "type": "function"
    },
    {
      "inputs": [
        {
          "internalType": "address",
          "name": "_patient",
          "type": "address"
        }
      ],
      "name": "getPatientRecords",
      "outputs": [
        {
          "components": [
            {
              "internalType": "uint256",
              "name": "id",
              "type": "uint256"
            },
            {
              "internalType": "address",
              "name": "patient",
              "type": "address"
            },
            {
              "internalType": "address",
              "name": "hospital",
              "type": "address"
            },
            {
              "internalType": "string",
              "name": "ipfsHash",
              "type": "string"
            },
            {
              "internalType": "string",
              "name": "recordType",
              "type": "string"
            },
            {
              "internalType": "string",
              "name": "description",
              "type": "string"
            },
            {
              "internalType": "uint256",
              "name": "timestamp",
              "type": "uint256"
            }
          ],
          "internalType": "struct MediLedger.MedicalRecord[]",
          "name": "",
          "type": "tuple[]"
        }
      ],
      "stateMutability": "view",
      "type": "function"
    },
    {
      "inputs": [
        {
          "internalType": "address",
          "name": "_patient",
          "type": "address"
        }
      ],
      "name": "getRecordCount",
      "outputs": [
        {
          "internalType": "uint256",
          "name": "",
          "type": "uint256"
        }
      ],
      "stateMutability": "view",
      "type": "function"
    },
    {
      "inputs": [
        {
          "internalType": "address",
          "name": "_doctor",
          "type": "address"
        }
      ],
      "name": "grantAccess",
      "outputs": [],
      "stateMutability": "nonpayable",
      "type": "function"
    },
    {
      "inputs": [
        {
          "internalType": "address",
          "name": "",
          "type": "address"
        }
      ],
      "name": "hospitals",
      "outputs": [
        {
          "internalType": "uint256",
          "name": "id",
          "type": "uint256"
        },
        {
          "internalType": "string",
          "name": "name",
          "type": "string"
        },
        {
          "internalType": "string",
          "name": "location",
          "type": "string"
        },
        {
          "internalType": "address",
          "name": "walletAddress",
          "type": "address"
        },
        {
          "internalType": "bool",
          "name": "isRegistered",
          "type": "bool"
        }
      ],
      "stateMutability": "view",
      "type": "function"
    },
    {
      "inputs": [],
      "name": "owner",
      "outputs": [
        {
          "internalType": "address",
          "name": "",
          "type": "address"
        }
      ],
      "stateMutability": "view",
      "type": "function"
    },
    {
      "inputs": [
        {
          "internalType": "address",
          "name": "_hospitalAddress",
          "type": "address"
        },
        {
          "internalType": "string",
          "name": "_name",
          "type": "string"
        },
        {
          "internalType": "string",
          "name": "_location",
          "type": "string"
        }
      ],
      "name": "registerHospital",
      "outputs": [],
      "stateMutability": "nonpayable",
      "type": "function"
    },
    {
      "inputs": [
        {
          "internalType": "address",
          "name": "_doctor",
          "type": "address"
        }
      ],
      "name": "revokeAccess",
      "outputs": [],
      "stateMutability": "nonpayable",
      "type": "function"
    }
  ],
  "bytecode": "0x608060405234801561001057600080fd5b50336000806101000a81548173ffffffffffffffffffffffffffffffffffffffff021916908373ffffffffffffffffffffffffffffffffffffffff160217905550612b3e806100606000396000f3fe608060405234801561001057600080fd5b50600436106100a95760003560e01c806362e1f7451161007157806362e1f745146101625780637774fc191461019257806385e68531146101b05780638da5cb5b146101cc578063c49b09b5146101ea578063f093cf801461021a576100a9565b80630ae5e739146100ae57806318bd4847146100ca5780633370a18e146100fa57806349d41e83146101165780635821430814610132575b600080fd5b6100c860048036038101906100c39190611afc565b61024e565b005b6100e460048036038101906100df9190611afc565b610479565b6040516100f19190611d4d565b60405180910390f35b610114600480360381019061010f9190611ea4565b61089d565b005b610130600480360381019061012b9190611f5f565b610c19565b005b61014c60048036038101906101479190611afc565b610f95565b6040516101599190611ff9565b60405180910390f35b61017c60048036038101906101779190612014565b610fe1565b604051610189919061206f565b60405180910390f35b61019a611075565b6040516101a79190612139565b60405180910390f35b6101ca60048036038101906101c59190611afc565b611103565b005b6101d46112be565b6040516101e1919061216a565b60405180910390f35b61020460048036038101906101ff9190611afc565b6112e2565b6040516102119190612211565b60405180910390f35b610234600480360381019061022f9190611afc565b6114da565b60405161024595949392919061227d565b60405180910390f35b600073ffffffffffffffffffffffffffffffffffffffff168173ffffffffffffffffffffffffffffffffffffffff16036102bd576040517f08c379a00000000000000000000000000000000000000000000000000000000081526004016102b49061232a565b60405180910390fd5b600560003373ffffffffffffffffffffffffffffffffffffffff1673ffffffffffffffffffffffffffffffffffffffff16815260200190815260200160002060008273ffffffffffffffffffffffffffffffffffffffff1673ffffffffffffffffffffffffffffffffffffffff16815260200190815260200160002060009054906101000a900460ff1615610387576040517f08c379a000000000000000000000000000000000000000000000000000000000815260040161037e90612396565b60405180910390fd5b6001600560003373ffffffffffffffffffffffffffffffffffffffff1673ffffffffffffffffffffffffffffffffffffffff16815260200190815260200160002060008373ffffffffffffffffffffffffffffffffffffffff1673ffffffffffffffffffffffffffffffffffffffff16815260200190815260200160002060006101000a81548160ff0219169083151502179055508073ffffffffffffffffffffffffffffffffffffffff163373ffffffffffffffffffffffffffffffffffffffff167f9f520b3bfc56d06f7065d10b4683b3f57ac8895d5026cd176dee95ce1454cb8d60405160405180910390a350565b60608173ffffffffffffffffffffffffffffffffffffffff163373ffffffffffffffffffffffffffffffffffffffff16148061053b5750600560008373ffffffffffffffffffffffffffffffffffffffff1673ffffffffffffffffffffffffffffffffffffffff16815260200190815260200160002060003373ffffffffffffffffffffffffffffffffffffffff1673ffffffffffffffffffffffffffffffffffffffff16815260200190815260200160002060009054906101000a900460ff165b8061054c575061054b338361164d565b5b61058b576040517f08c379a000000000000000000000000000000000000000000000000000000000815260040161058290612402565b60405180910390fd5b600460008373ffffffffffffffffffffffffffffffffffffffff1673ffffffffffffffffffffffffffffffffffffffff168152602001908152602001600020805480602002602001604051908101604052809291908181526020016000905b8282101561089257838290600052602060002090600702016040518060e0016040529081600082015481526020016001820160009054906101000a900473ffffffffffffffffffffffffffffffffffffffff1673ffffffffffffffffffffffffffffffffffffffff1673ffffffffffffffffffffffffffffffffffffffff1681526020016002820160009054906101000a900473ffffffffffffffffffffffffffffffffffffffff1673ffffffffffffffffffffffffffffffffffffffff1673ffffffffffffffffffffffffffffffffffffffff1681526020016003820180546106d390612451565b80601f01602080910402602001604051908101604052809291908181526020018280546106ff90612451565b801561074c5780601f106107215761010080835404028352916020019161074c565b820191906000526020600020905b81548152906001019060200180831161072f57829003601f168201915b5050505050815260200160048201805461076590612451565b80601f016020809104026020016040519081016040528092919081815260200182805461079190612451565b80156107de5780601f106107b3576101008083540402835291602001916107de565b820191906000526020600020905b8154815290600101906020018083116107c157829003601f168201915b505050505081526020016005820180546107f790612451565b80601f016020809104026020016040519081016040528092919081815260200182805461082390612451565b80156108705780601f1061084557610100808354040283529160200191610870565b820191906000526020600020905b81548152906001019060200180831161085357829003601f168201915b50505050508152602001600682015481525050815260200190600101906105ea565b505050509050919050565b600360003373ffffffffffffffffffffffffffffffffffffffff1673ffffffffffffffffffffffffffffffffffffffff16815260200190815260200160002060030160149054906101000a900460ff1661092c576040517f08c379a0000000000000000000000000000000000000000000000000000000008152600401610923906124f4565b60405180910390fd5b600073ffffffffffffffffffffffffffffffffffffffff168473ffffffffffffffffffffffffffffffffffffffff160361099b576040517f08c379a000000000000000000000000000000000000000000000000000000000815260040161099290612560565b60405180910390fd5b60008351116109df576040517f08c379a00000000000000000000000000000000000000000000000000000000081526004016109d6906125cc565b60405180910390fd5b600160008154809291906109f29061261b565b919050555060006040518060e0016040528060015481526020018673ffffffffffffffffffffffffffffffffffffffff1681526020013373ffffffffffffffffffffffffffffffffffffffff168152602001858152602001848152602001838152602001428152509050600460008673ffffffffffffffffffffffffffffffffffffffff1673ffffffffffffffffffffffffffffffffffffffff1681526020019081526020016000208190806001815401808255809150506001900390600052602060002090600702016000909190919091506000820151816000015560208201518160010160006101000a81548173ffffffffffffffffffffffffffffffffffffffff021916908373ffffffffffffffffffffffffffffffffffffffff16021790555060408201518160020160006101000a81548173ffffffffffffffffffffffffffffffffffffffff021916908373ffffffffffffffffffffffffffffffffffffffff1602179055506060820151816003019081610b72919061280f565b506080820151816004019081610b88919061280f565b5060a0820151816005019081610b9e919061280f565b5060c0820151816006015550503373ffffffffffffffffffffffffffffffffffffffff168573ffffffffffffffffffffffffffffffffffffffff167f45cbd8514e76f91fe5ca7e77740d71af49ae7b9b7d629fab5a016e5883f87ad1600154604051610c0a9190611ff9565b60405180910390a35050505050565b60008054906101000a900473ffffffffffffffffffffffffffffffffffffffff1673ffffffffffffffffffffffffffffffffffffffff163373ffffffffffffffffffffffffffffffffffffffff1614610ca7576040517f08c379a0000000000000000000000000000000000000000000000000000000008152600401610c9e90612953565b60405180910390fd5b600360008473ffffffffffffffffffffffffffffffffffffffff1673ffffffffffffffffffffffffffffffffffffffff16815260200190815260200160002060030160149054906101000a900460ff1615610d37576040517f08c379a0000000000000000000000000000000000000000000000000000000008152600401610d2e906129bf565b60405180910390fd5b600073ffffffffffffffffffffffffffffffffffffffff168373ffffffffffffffffffffffffffffffffffffffff1603610da6576040517f08c379a0000000000000000000000000000000000000000000000000000000008152600401610d9d90612a2b565b60405180910390fd5b60026000815480929190610db99061261b565b91905055506040518060a0016040528060025481526020018381526020018281526020018473ffffffffffffffffffffffffffffffffffffffff16815260200160011515815250600360008573ffffffffffffffffffffffffffffffffffffffff1673ffffffffffffffffffffffffffffffffffffffff168152602001908152602001600020600082015181600001556020820151816001019081610e5e919061280f565b506040820151816002019081610e74919061280f565b5060608201518160030160006101000a81548173ffffffffffffffffffffffffffffffffffffffff021916908373ffffffffffffffffffffffffffffffffffffffff16021790555060808201518160030160146101000a81548160ff0219169083151502179055509050506006839080600181540180825580915050600190039060005260206000200160009091909190916101000a81548173ffffffffffffffffffffffffffffffffffffffff021916908373ffffffffffffffffffffffffffffffffffffffff1602179055508273ffffffffffffffffffffffffffffffffffffffff167f72cefccb74b7edacb21023a72b39a2cecb1123ba70d1eea03d3509d046b941c283604051610f889190612a4b565b60405180910390a2505050565b6000600460008373ffffffffffffffffffffffffffffffffffffffff1673ffffffffffffffffffffffffffffffffffffffff168152602001908152602001600020805490509050919050565b6000600560008473ffffffffffffffffffffffffffffffffffffffff1673ffffffffffffffffffffffffffffffffffffffff16815260200190815260200160002060008373ffffffffffffffffffffffffffffffffffffffff1673ffffffffffffffffffffffffffffffffffffffff16815260200190815260200160002060009054906101000a900460ff16905092915050565b606060068054806020026020016040519081016040528092919081815260200182805480156110f957602002820191906000526020600020905b8160009054906101000a900473ffffffffffffffffffffffffffffffffffffffff1673ffffffffffffffffffffffffffffffffffffffff16815260200190600101908083116110af575b5050505050905090565b600560003373ffffffffffffffffffffffffffffffffffffffff1673ffffffffffffffffffffffffffffffffffffffff16815260200190815260200160002060008273ffffffffffffffffffffffffffffffffffffffff1673ffffffffffffffffffffffffffffffffffffffff16815260200190815260200160002060009054906101000a900460ff166111cc576040517f08c379a00000000000000000000000000000000000000000000000000000000081526004016111c390612ab9565b60405180910390fd5b6000600560003373ffffffffffffffffffffffffffffffffffffffff1673ffffffffffffffffffffffffffffffffffffffff16815260200190815260200160002060008373ffffffffffffffffffffffffffffffffffffffff1673ffffffffffffffffffffffffffffffffffffffff16815260200190815260200160002060006101000a81548160ff0219169083151502179055508073ffffffffffffffffffffffffffffffffffffffff163373ffffffffffffffffffffffffffffffffffffffff167f825c8be24eb0df19500f63e86c29e7d0d951e73056b889b891d85e40938d9b6e60405160405180910390a350565b60008054906101000a900473ffffffffffffffffffffffffffffffffffffffff1681565b6112ea611a43565b600360008373ffffffffffffffffffffffffffffffffffffffff1673ffffffffffffffffffffffffffffffffffffffff1681526020019081526020016000206040518060a00160405290816000820154815260200160018201805461134e90612451565b80601f016020809104026020016040519081016040528092919081815260200182805461137a90612451565b80156113c75780601f1061139c576101008083540402835291602001916113c7565b820191906000526020600020905b8154815290600101906020018083116113aa57829003601f168201915b505050505081526020016002820180546113e090612451565b80601f016020809104026020016040519081016040528092919081815260200182805461140c90612451565b80156114595780601f1061142e57610100808354040283529160200191611459565b820191906000526020600020905b81548152906001019060200180831161143c57829003601f168201915b505050505081526020016003820160009054906101000a900473ffffffffffffffffffffffffffffffffffffffff1673ffffffffffffffffffffffffffffffffffffffff1673ffffffffffffffffffffffffffffffffffffffff1681526020016003820160149054906101000a900460ff1615151515815250509050919050565b600360205280600052604060002060009150905080600001549080600101805461150390612451565b80601f016020809104026020016040519081016040528092919081815260200182805461152f90612451565b801561157c5780601f106115515761010080835404028352916020019161157c565b820191906000526020600020905b81548152906001019060200180831161155f57829003601f168201915b50505050509080600201805461159190612451565b80601f01602080910402602001604051908101604052809291908181526020018280546115bd90612451565b801561160a5780601f106115df5761010080835404028352916020019161160a565b820191906000526020600020905b8154815290600101906020018083116115ed57829003601f168201915b5050505050908060030160009054906101000a900473ffffffffffffffffffffffffffffffffffffffff16908060030160149054906101000a900460ff16905085565b6000600360008473ffffffffffffffffffffffffffffffffffffffff1673ffffffffffffffffffffffffffffffffffffffff16815260200190815260200160002060030160149054906101000a900460ff166116ac5760009050611a3d565b6000600460008473ffffffffffffffffffffffffffffffffffffffff1673ffffffffffffffffffffffffffffffffffffffff168152602001908152602001600020805480602002602001604051908101604052809291908181526020016000905b828210156119b557838290600052602060002090600702016040518060e0016040529081600082015481526020016001820160009054906101000a900473ffffffffffffffffffffffffffffffffffffffff1673ffffffffffffffffffffffffffffffffffffffff1673ffffffffffffffffffffffffffffffffffffffff1681526020016002820160009054906101000a900473ffffffffffffffffffffffffffffffffffffffff1673ffffffffffffffffffffffffffffffffffffffff1673ffffffffffffffffffffffffffffffffffffffff1681526020016003820180546117f690612451565b80601f016020809104026020016040519081016040528092919081815260200182805461182290612451565b801561186f5780601f106118445761010080835404028352916020019161186f565b820191906000526020600020905b81548152906001019060200180831161185257829003601f168201915b5050505050815260200160048201805461188890612451565b80601f01602080910402602001604051908101604052809291908181526020018280546118b490612451565b80156119015780601f106118d657610100808354040283529160200191611901565b820191906000526020600020905b8154815290600101906020018083116118e457829003601f168201915b5050505050815260200160058201805461191a90612451565b80601f016020809104026020016040519081016040528092919081815260200182805461194690612451565b80156119935780601f1061196857610100808354040283529160200191611993565b820191906000526020600020905b81548152906001019060200180831161197657829003601f168201915b505050505081526020016006820154815250508152602001906001019061170d565b50505050905060005b8151811015611a36578473ffffffffffffffffffffffffffffffffffffffff168282815181106119f1576119f0612ad9565b5b60200260200101516040015173ffffffffffffffffffffffffffffffffffffffff1603611a2357600192505050611a3d565b8080611a2e9061261b565b9150506119be565b5060009150505b92915050565b6040518060a00160405280600081526020016060815260200160608152602001600073ffffffffffffffffffffffffffffffffffffffff1681526020016000151581525090565b6000604051905090565b600080fd5b600080fd5b600073ffffffffffffffffffffffffffffffffffffffff82169050919050565b6000611ac982611a9e565b9050919050565b611ad981611abe565b8114611ae457600080fd5b50565b600081359050611af681611ad0565b92915050565b600060208284031215611b1257611b11611a94565b5b6000611b2084828501611ae7565b91505092915050565b600081519050919050565b600082825260208201905092915050565b6000819050602082019050919050565b6000819050919050565b611b6881611b55565b82525050565b611b7781611abe565b82525050565b600081519050919050565b600082825260208201905092915050565b60005b83811015611bb7578082015181840152602081019050611b9c565b60008484015250505050565b6000601f19601f8301169050919050565b6000611bdf82611b7d565b611be98185611b88565b9350611bf9818560208601611b99565b611c0281611bc3565b840191505092915050565b600060e083016000830151611c256000860182611b5f565b506020830151611c386020860182611b6e565b506040830151611c4b6040860182611b6e565b5060608301518482036060860152611c638282611bd4565b91505060808301518482036080860152611c7d8282611bd4565b91505060a083015184820360a0860152611c978282611bd4565b91505060c0830151611cac60c0860182611b5f565b508091505092915050565b6000611cc38383611c0d565b905092915050565b6000602082019050919050565b6000611ce382611b29565b611ced8185611b34565b935083602082028501611cff85611b45565b8060005b85811015611d3b5784840389528151611d1c8582611cb7565b9450611d2783611ccb565b925060208a01995050600181019050611d03565b50829750879550505050505092915050565b60006020820190508181036000830152611d678184611cd8565b905092915050565b600080fd5b600080fd5b7f4e487b7100000000000000000000000000000000000000000000000000000000600052604160045260246000fd5b611db182611bc3565b810181811067ffffffffffffffff82111715611dd057611dcf611d79565b5b80604052505050565b6000611de3611a8a565b9050611def8282611da8565b919050565b600067ffffffffffffffff821115611e0f57611e0e611d79565b5b611e1882611bc3565b9050602081019050919050565b82818337600083830152505050565b6000611e47611e4284611df4565b611dd9565b905082815260208101848484011115611e6357611e62611d74565b5b611e6e848285611e25565b509392505050565b600082601f830112611e8b57611e8a611d6f565b5b8135611e9b848260208601611e34565b91505092915050565b60008060008060808587031215611ebe57611ebd611a94565b5b6000611ecc87828801611ae7565b945050602085013567ffffffffffffffff811115611eed57611eec611a99565b5b611ef987828801611e76565b935050604085013567ffffffffffffffff811115611f1a57611f19611a99565b5b611f2687828801611e76565b925050606085013567ffffffffffffffff811115611f4757611f46611a99565b5b611f5387828801611e76565b91505092959194509250565b600080600060608486031215611f7857611f77611a94565b5b6000611f8686828701611ae7565b935050602084013567ffffffffffffffff811115611fa757611fa6611a99565b5b611fb386828701611e76565b925050604084013567ffffffffffffffff811115611fd457611fd3611a99565b5b611fe086828701611e76565b9150509250925092565b611ff381611b55565b82525050565b600060208201905061200e6000830184611fea565b92915050565b6000806040838503121561202b5761202a611a94565b5b600061203985828601611ae7565b925050602061204a85828601611ae7565b9150509250929050565b60008115159050919050565b61206981612054565b82525050565b60006020820190506120846000830184612060565b92915050565b600081519050919050565b600082825260208201905092915050565b6000819050602082019050919050565b60006120c28383611b6e565b60208301905092915050565b6000602082019050919050565b60006120e68261208a565b6120f08185612095565b93506120fb836120a6565b8060005b8381101561212c57815161211388826120b6565b975061211e836120ce565b9250506001810190506120ff565b5085935050505092915050565b6000602082019050818103600083015261215381846120db565b905092915050565b61216481611abe565b82525050565b600060208201905061217f600083018461215b565b92915050565b61218e81612054565b82525050565b600060a0830160008301516121ac6000860182611b5f565b50602083015184820360208601526121c48282611bd4565b915050604083015184820360408601526121de8282611bd4565b91505060608301516121f36060860182611b6e565b5060808301516122066080860182612185565b508091505092915050565b6000602082019050818103600083015261222b8184612194565b905092915050565b600082825260208201905092915050565b600061224f82611b7d565b6122598185612233565b9350612269818560208601611b99565b61227281611bc3565b840191505092915050565b600060a0820190506122926000830188611fea565b81810360208301526122a48187612244565b905081810360408301526122b88186612244565b90506122c7606083018561215b565b6122d46080830184612060565b9695505050505050565b7f496e76616c696420646f63746f72206164647265737300000000000000000000600082015250565b6000612314601683612233565b915061231f826122de565b602082019050919050565b6000602082019050818103600083015261234381612307565b9050919050565b7f41636365737320616c7265616479206772616e74656400000000000000000000600082015250565b6000612380601683612233565b915061238b8261234a565b602082019050919050565b600060208201905081810360008301526123af81612373565b9050919050565b7f4e6f7420617574686f72697a656420746f2076696577207265636f7264730000600082015250565b60006123ec601e83612233565b91506123f7826123b6565b602082019050919050565b6000602082019050818103600083015261241b816123df565b9050919050565b7f4e487b7100000000000000000000000000000000000000000000000000000000600052602260045260246000fd5b6000600282049050600182168061246957607f821691505b60208210810361247c5761247b612422565b5b50919050565b7f4f6e6c79207265676973746572656420686f73706974616c732063616e20706560008201527f72666f726d207468697320616374696f6e000000000000000000000000000000602082015250565b60006124de603183612233565b91506124e982612482565b604082019050919050565b6000602082019050818103600083015261250d816124d1565b9050919050565b7f496e76616c69642070617469656e742061646472657373000000000000000000600082015250565b600061254a601783612233565b915061255582612514565b602082019050919050565b600060208201905081810360008301526125798161253d565b9050919050565b7f4950465320686173682063616e6e6f7420626520656d70747900000000000000600082015250565b60006125b6601983612233565b91506125c182612580565b602082019050919050565b600060208201905081810360008301526125e5816125a9565b9050919050565b7f4e487b7100000000000000000000000000000000000000000000000000000000600052601160045260246000fd5b600061262682611b55565b91507fffffffffffffffffffffffffffffffffffffffffffffffffffffffffffffffff8203612658576126576125ec565b5b600182019050919050565b60008190508160005260206000209050919050565b60006020601f8301049050919050565b600082821b905092915050565b6000600883026126c57fffffffffffffffffffffffffffffffffffffffffffffffffffffffffffffffff82612688565b6126cf8683612688565b95508019841693508086168417925050509392505050565b6000819050919050565b600061270c61270761270284611b55565b6126e7565b611b55565b9050919050565b6000819050919050565b612726836126f1565b61273a61273282612713565b848454612695565b825550505050565b600090565b61274f612742565b61275a81848461271d565b505050565b5b8181101561277e57612773600082612747565b600181019050612760565b5050565b601f8211156127c35761279481612663565b61279d84612678565b810160208510156127ac578190505b6127c06127b885612678565b83018261275f565b50505b505050565b600082821c905092915050565b60006127e6600019846008026127c8565b1980831691505092915050565b60006127ff83836127d5565b9150826002028217905092915050565b61281882611b7d565b67ffffffffffffffff81111561283157612830611d79565b5b61283b8254612451565b612846828285612782565b600060209050601f8311600181146128795760008415612867578287015190505b61287185826127f3565b8655506128d9565b601f19841661288786612663565b60005b828110156128af5784890151825560018201915060208501945060208101905061288a565b868310156128cc57848901516128c8601f8916826127d5565b8355505b6001600288020188555050505b505050505050565b7f4f6e6c79206f776e65722063616e20706572666f726d2074686973206163746960008201527f6f6e000000000000000000000000000000000000000000000000000000000000602082015250565b600061293d602283612233565b9150612948826128e1565b604082019050919050565b6000602082019050818103600083015261296c81612930565b9050919050565b7f486f73706974616c20616c726561647920726567697374657265640000000000600082015250565b60006129a9601b83612233565b91506129b482612973565b602082019050919050565b600060208201905081810360008301526129d88161299c565b9050919050565b7f496e76616c696420686f73706974616c20616464726573730000000000000000600082015250565b6000612a15601883612233565b9150612a20826129df565b602082019050919050565b60006020820190508181036000830152612a4481612a08565b9050919050565b60006020820190508181036000830152612a658184612244565b905092915050565b7f416363657373206e6f74206772616e7465640000000000000000000000000000600082015250565b6000612aa3601283612233565b9150612aae82612a6d565b602082019050919050565b60006020820190508181036000830152612ad281612a96565b9050919050565b7f4e487b7100000000000000000000000000000000000000000000000000000000600052603260045260246000fdfea26469706673582212205debba227bb25d9e833ecedb1482b79c2f99d6c86fe961a2f7edb1cba59b40dc64736f6c63430008130033",
  "linkReferences": {},
  "deployedLinkReferences": {}
}